{
  "contractName": "CreateFarmToken",
  "abi": [
    {
      "inputs": [
        {
          "internalType": "address",
          "name": "_token",
          "type": "address"
        }
      ],
      "stateMutability": "nonpayable",
      "type": "constructor"
    },
    {
      "anonymous": false,
      "inputs": [
        {
          "indexed": true,
          "internalType": "address",
          "name": "owner",
          "type": "address"
        },
        {
          "indexed": true,
          "internalType": "address",
          "name": "spender",
          "type": "address"
        },
        {
          "indexed": false,
          "internalType": "uint256",
          "name": "value",
          "type": "uint256"
        }
      ],
      "name": "Approval",
      "type": "event"
    },
    {
      "anonymous": false,
      "inputs": [
        {
          "indexed": true,
          "internalType": "address",
          "name": "from",
          "type": "address"
        },
        {
          "indexed": true,
          "internalType": "address",
          "name": "to",
          "type": "address"
        },
        {
          "indexed": false,
          "internalType": "uint256",
          "name": "value",
          "type": "uint256"
        }
      ],
      "name": "Transfer",
      "type": "event"
    },
    {
      "inputs": [
        {
          "internalType": "address",
          "name": "owner",
          "type": "address"
        },
        {
          "internalType": "address",
          "name": "spender",
          "type": "address"
        }
      ],
      "name": "allowance",
      "outputs": [
        {
          "internalType": "uint256",
          "name": "",
          "type": "uint256"
        }
      ],
      "stateMutability": "view",
      "type": "function",
      "constant": true
    },
    {
      "inputs": [
        {
          "internalType": "address",
          "name": "spender",
          "type": "address"
        },
        {
          "internalType": "uint256",
          "name": "amount",
          "type": "uint256"
        }
      ],
      "name": "approve",
      "outputs": [
        {
          "internalType": "bool",
          "name": "",
          "type": "bool"
        }
      ],
      "stateMutability": "nonpayable",
      "type": "function"
    },
    {
      "inputs": [
        {
          "internalType": "address",
          "name": "account",
          "type": "address"
        }
      ],
      "name": "balanceOf",
      "outputs": [
        {
          "internalType": "uint256",
          "name": "",
          "type": "uint256"
        }
      ],
      "stateMutability": "view",
      "type": "function",
      "constant": true
    },
    {
      "inputs": [],
      "name": "decimals",
      "outputs": [
        {
          "internalType": "uint8",
          "name": "",
          "type": "uint8"
        }
      ],
      "stateMutability": "view",
      "type": "function",
      "constant": true
    },
    {
      "inputs": [
        {
          "internalType": "address",
          "name": "spender",
          "type": "address"
        },
        {
          "internalType": "uint256",
          "name": "subtractedValue",
          "type": "uint256"
        }
      ],
      "name": "decreaseAllowance",
      "outputs": [
        {
          "internalType": "bool",
          "name": "",
          "type": "bool"
        }
      ],
      "stateMutability": "nonpayable",
      "type": "function"
    },
    {
      "inputs": [
        {
          "internalType": "address",
          "name": "spender",
          "type": "address"
        },
        {
          "internalType": "uint256",
          "name": "addedValue",
          "type": "uint256"
        }
      ],
      "name": "increaseAllowance",
      "outputs": [
        {
          "internalType": "bool",
          "name": "",
          "type": "bool"
        }
      ],
      "stateMutability": "nonpayable",
      "type": "function"
    },
    {
      "inputs": [],
      "name": "name",
      "outputs": [
        {
          "internalType": "string",
          "name": "",
          "type": "string"
        }
      ],
      "stateMutability": "view",
      "type": "function",
      "constant": true
    },
    {
      "inputs": [],
      "name": "symbol",
      "outputs": [
        {
          "internalType": "string",
          "name": "",
          "type": "string"
        }
      ],
      "stateMutability": "view",
      "type": "function",
      "constant": true
    },
    {
      "inputs": [],
      "name": "token",
      "outputs": [
        {
          "internalType": "contract IERC20",
          "name": "",
          "type": "address"
        }
      ],
      "stateMutability": "view",
      "type": "function",
      "constant": true
    },
    {
      "inputs": [],
      "name": "totalSupply",
      "outputs": [
        {
          "internalType": "uint256",
          "name": "",
          "type": "uint256"
        }
      ],
      "stateMutability": "view",
      "type": "function",
      "constant": true
    },
    {
      "inputs": [
        {
          "internalType": "address",
          "name": "recipient",
          "type": "address"
        },
        {
          "internalType": "uint256",
          "name": "amount",
          "type": "uint256"
        }
      ],
      "name": "transfer",
      "outputs": [
        {
          "internalType": "bool",
          "name": "",
          "type": "bool"
        }
      ],
      "stateMutability": "nonpayable",
      "type": "function"
    },
    {
      "inputs": [
        {
          "internalType": "address",
          "name": "sender",
          "type": "address"
        },
        {
          "internalType": "address",
          "name": "recipient",
          "type": "address"
        },
        {
          "internalType": "uint256",
          "name": "amount",
          "type": "uint256"
        }
      ],
      "name": "transferFrom",
      "outputs": [
        {
          "internalType": "bool",
          "name": "",
          "type": "bool"
        }
      ],
      "stateMutability": "nonpayable",
      "type": "function"
    },
    {
      "inputs": [],
      "name": "balance",
      "outputs": [
        {
          "internalType": "uint256",
          "name": "",
          "type": "uint256"
        }
      ],
      "stateMutability": "view",
      "type": "function",
      "constant": true
    },
    {
      "inputs": [
        {
          "internalType": "uint256",
          "name": "_amount",
          "type": "uint256"
        }
      ],
      "name": "deposit",
      "outputs": [],
      "stateMutability": "nonpayable",
      "type": "function"
    },
    {
      "inputs": [
        {
          "internalType": "uint256",
          "name": "_amount",
          "type": "uint256"
        }
      ],
      "name": "withdraw",
      "outputs": [],
      "stateMutability": "nonpayable",
      "type": "function"
    }
  ],
  "bytecode": "0x60806040523480156200001157600080fd5b506040516200255c3803806200255c8339818101604052810190620000379190620001e6565b6040518060400160405280600981526020017f4661726d546f6b656e00000000000000000000000000000000000000000000008152506040518060400160405280600381526020017f46524d00000000000000000000000000000000000000000000000000000000008152508160039080519060200190620000bb9291906200011f565b508060049080519060200190620000d49291906200011f565b50505080600560006101000a81548173ffffffffffffffffffffffffffffffffffffffff021916908373ffffffffffffffffffffffffffffffffffffffff16021790555050620002c5565b8280546200012d9062000246565b90600052602060002090601f0160209004810192826200015157600085556200019d565b82601f106200016c57805160ff19168380011785556200019d565b828001600101855582156200019d579182015b828111156200019c5782518255916020019190600101906200017f565b5b509050620001ac9190620001b0565b5090565b5b80821115620001cb576000816000905550600101620001b1565b5090565b600081519050620001e081620002ab565b92915050565b600060208284031215620001f957600080fd5b60006200020984828501620001cf565b91505092915050565b60006200021f8262000226565b9050919050565b600073ffffffffffffffffffffffffffffffffffffffff82169050919050565b600060028204905060018216806200025f57607f821691505b602082108114156200027657620002756200027c565b5b50919050565b7f4e487b7100000000000000000000000000000000000000000000000000000000600052602260045260246000fd5b620002b68162000212565b8114620002c257600080fd5b50565b61228780620002d56000396000f3fe608060405234801561001057600080fd5b50600436106100f55760003560e01c806370a0823111610097578063b69ef8a811610066578063b69ef8a8146102ae578063b6b55f25146102cc578063dd62ed3e146102e8578063fc0c546a14610318576100f5565b806370a082311461020057806395d89b4114610230578063a457c2d71461024e578063a9059cbb1461027e576100f5565b806323b872dd116100d357806323b872dd146101665780632e1a7d4d14610196578063313ce567146101b257806339509351146101d0576100f5565b806306fdde03146100fa578063095ea7b31461011857806318160ddd14610148575b600080fd5b610102610336565b60405161010f9190611a0b565b60405180910390f35b610132600480360381019061012d91906115ed565b6103c8565b60405161013f91906119d5565b60405180910390f35b6101506103e6565b60405161015d9190611bed565b60405180910390f35b610180600480360381019061017b919061159e565b6103f0565b60405161018d91906119d5565b60405180910390f35b6101b060048036038101906101ab9190611652565b6104f1565b005b6101ba61054b565b6040516101c79190611c08565b60405180910390f35b6101ea60048036038101906101e591906115ed565b610554565b6040516101f791906119d5565b60405180910390f35b61021a60048036038101906102159190611539565b610600565b6040516102279190611bed565b60405180910390f35b610238610648565b6040516102459190611a0b565b60405180910390f35b610268600480360381019061026391906115ed565b6106da565b60405161027591906119d5565b60405180910390f35b610298600480360381019061029391906115ed565b6107ce565b6040516102a591906119d5565b60405180910390f35b6102b66107ec565b6040516102c39190611bed565b60405180910390f35b6102e660048036038101906102e19190611652565b61089e565b005b61030260048036038101906102fd9190611562565b61093d565b60405161030f9190611bed565b60405180910390f35b6103206109c4565b60405161032d91906119f0565b60405180910390f35b60606003805461034590611d8b565b80601f016020809104026020016040519081016040528092919081815260200182805461037190611d8b565b80156103be5780601f10610393576101008083540402835291602001916103be565b820191906000526020600020905b8154815290600101906020018083116103a157829003601f168201915b5050505050905090565b60006103dc6103d56109ea565b84846109f2565b6001905092915050565b6000600254905090565b60006103fd848484610bbd565b6000600160008673ffffffffffffffffffffffffffffffffffffffff1673ffffffffffffffffffffffffffffffffffffffff16815260200190815260200160002060006104486109ea565b73ffffffffffffffffffffffffffffffffffffffff1673ffffffffffffffffffffffffffffffffffffffff168152602001908152602001600020549050828110156104c8576040517f08c379a00000000000000000000000000000000000000000000000000000000081526004016104bf90611acd565b60405180910390fd5b6104e5856104d46109ea565b85846104e09190611cab565b6109f2565b60019150509392505050565b6104fb3382610e3c565b6105483382600560009054906101000a900473ffffffffffffffffffffffffffffffffffffffff1673ffffffffffffffffffffffffffffffffffffffff166110109092919063ffffffff16565b50565b60006012905090565b60006105f66105616109ea565b84846001600061056f6109ea565b73ffffffffffffffffffffffffffffffffffffffff1673ffffffffffffffffffffffffffffffffffffffff16815260200190815260200160002060008873ffffffffffffffffffffffffffffffffffffffff1673ffffffffffffffffffffffffffffffffffffffff168152602001908152602001600020546105f19190611c55565b6109f2565b6001905092915050565b60008060008373ffffffffffffffffffffffffffffffffffffffff1673ffffffffffffffffffffffffffffffffffffffff168152602001908152602001600020549050919050565b60606004805461065790611d8b565b80601f016020809104026020016040519081016040528092919081815260200182805461068390611d8b565b80156106d05780601f106106a5576101008083540402835291602001916106d0565b820191906000526020600020905b8154815290600101906020018083116106b357829003601f168201915b5050505050905090565b600080600160006106e96109ea565b73ffffffffffffffffffffffffffffffffffffffff1673ffffffffffffffffffffffffffffffffffffffff16815260200190815260200160002060008573ffffffffffffffffffffffffffffffffffffffff1673ffffffffffffffffffffffffffffffffffffffff168152602001908152602001600020549050828110156107a6576040517f08c379a000000000000000000000000000000000000000000000000000000000815260040161079d90611bad565b60405180910390fd5b6107c36107b16109ea565b8585846107be9190611cab565b6109f2565b600191505092915050565b60006107e26107db6109ea565b8484610bbd565b6001905092915050565b6000600560009054906101000a900473ffffffffffffffffffffffffffffffffffffffff1673ffffffffffffffffffffffffffffffffffffffff166370a08231306040518263ffffffff1660e01b8152600401610849919061195a565b60206040518083038186803b15801561086157600080fd5b505afa158015610875573d6000803e3d6000fd5b505050506040513d601f19601f82011682018060405250810190610899919061167b565b905090565b600081116108e1576040517f08c379a00000000000000000000000000000000000000000000000000000000081526004016108d890611b6d565b60405180910390fd5b610930333083600560009054906101000a900473ffffffffffffffffffffffffffffffffffffffff1673ffffffffffffffffffffffffffffffffffffffff16611096909392919063ffffffff16565b61093a338261111f565b50565b6000600160008473ffffffffffffffffffffffffffffffffffffffff1673ffffffffffffffffffffffffffffffffffffffff16815260200190815260200160002060008373ffffffffffffffffffffffffffffffffffffffff1673ffffffffffffffffffffffffffffffffffffffff16815260200190815260200160002054905092915050565b600560009054906101000a900473ffffffffffffffffffffffffffffffffffffffff1681565b600033905090565b600073ffffffffffffffffffffffffffffffffffffffff168373ffffffffffffffffffffffffffffffffffffffff161415610a62576040517f08c379a0000000000000000000000000000000000000000000000000000000008152600401610a5990611b2d565b60405180910390fd5b600073ffffffffffffffffffffffffffffffffffffffff168273ffffffffffffffffffffffffffffffffffffffff161415610ad2576040517f08c379a0000000000000000000000000000000000000000000000000000000008152600401610ac990611a6d565b60405180910390fd5b80600160008573ffffffffffffffffffffffffffffffffffffffff1673ffffffffffffffffffffffffffffffffffffffff16815260200190815260200160002060008473ffffffffffffffffffffffffffffffffffffffff1673ffffffffffffffffffffffffffffffffffffffff168152602001908152602001600020819055508173ffffffffffffffffffffffffffffffffffffffff168373ffffffffffffffffffffffffffffffffffffffff167f8c5be1e5ebec7d5bd14f71427d1e84f3dd0314c0f7b2291e5b200ac8c7c3b92583604051610bb09190611bed565b60405180910390a3505050565b600073ffffffffffffffffffffffffffffffffffffffff168373ffffffffffffffffffffffffffffffffffffffff161415610c2d576040517f08c379a0000000000000000000000000000000000000000000000000000000008152600401610c2490611b0d565b60405180910390fd5b600073ffffffffffffffffffffffffffffffffffffffff168273ffffffffffffffffffffffffffffffffffffffff161415610c9d576040517f08c379a0000000000000000000000000000000000000000000000000000000008152600401610c9490611a2d565b60405180910390fd5b610ca8838383611273565b60008060008573ffffffffffffffffffffffffffffffffffffffff1673ffffffffffffffffffffffffffffffffffffffff16815260200190815260200160002054905081811015610d2e576040517f08c379a0000000000000000000000000000000000000000000000000000000008152600401610d2590611a8d565b60405180910390fd5b8181610d3a9190611cab565b6000808673ffffffffffffffffffffffffffffffffffffffff1673ffffffffffffffffffffffffffffffffffffffff16815260200190815260200160002081905550816000808573ffffffffffffffffffffffffffffffffffffffff1673ffffffffffffffffffffffffffffffffffffffff1681526020019081526020016000206000828254610dca9190611c55565b925050819055508273ffffffffffffffffffffffffffffffffffffffff168473ffffffffffffffffffffffffffffffffffffffff167fddf252ad1be2c89b69c2b068fc378daa952ba7f163c4a11628f55a4df523b3ef84604051610e2e9190611bed565b60405180910390a350505050565b600073ffffffffffffffffffffffffffffffffffffffff168273ffffffffffffffffffffffffffffffffffffffff161415610eac576040517f08c379a0000000000000000000000000000000000000000000000000000000008152600401610ea390611aed565b60405180910390fd5b610eb882600083611273565b60008060008473ffffffffffffffffffffffffffffffffffffffff1673ffffffffffffffffffffffffffffffffffffffff16815260200190815260200160002054905081811015610f3e576040517f08c379a0000000000000000000000000000000000000000000000000000000008152600401610f3590611a4d565b60405180910390fd5b8181610f4a9190611cab565b6000808573ffffffffffffffffffffffffffffffffffffffff1673ffffffffffffffffffffffffffffffffffffffff168152602001908152602001600020819055508160026000828254610f9e9190611cab565b92505081905550600073ffffffffffffffffffffffffffffffffffffffff168373ffffffffffffffffffffffffffffffffffffffff167fddf252ad1be2c89b69c2b068fc378daa952ba7f163c4a11628f55a4df523b3ef846040516110039190611bed565b60405180910390a3505050565b6110918363a9059cbb60e01b848460405160240161102f9291906119ac565b604051602081830303815290604052907bffffffffffffffffffffffffffffffffffffffffffffffffffffffff19166020820180517bffffffffffffffffffffffffffffffffffffffffffffffffffffffff8381831617835250505050611278565b505050565b611119846323b872dd60e01b8585856040516024016110b793929190611975565b604051602081830303815290604052907bffffffffffffffffffffffffffffffffffffffffffffffffffffffff19166020820180517bffffffffffffffffffffffffffffffffffffffffffffffffffffffff8381831617835250505050611278565b50505050565b600073ffffffffffffffffffffffffffffffffffffffff168273ffffffffffffffffffffffffffffffffffffffff16141561118f576040517f08c379a000000000000000000000000000000000000000000000000000000000815260040161118690611bcd565b60405180910390fd5b61119b60008383611273565b80600260008282546111ad9190611c55565b92505081905550806000808473ffffffffffffffffffffffffffffffffffffffff1673ffffffffffffffffffffffffffffffffffffffff16815260200190815260200160002060008282546112029190611c55565b925050819055508173ffffffffffffffffffffffffffffffffffffffff16600073ffffffffffffffffffffffffffffffffffffffff167fddf252ad1be2c89b69c2b068fc378daa952ba7f163c4a11628f55a4df523b3ef836040516112679190611bed565b60405180910390a35050565b505050565b60006112da826040518060400160405280602081526020017f5361666545524332303a206c6f772d6c6576656c2063616c6c206661696c65648152508573ffffffffffffffffffffffffffffffffffffffff1661133f9092919063ffffffff16565b905060008151111561133a57808060200190518101906112fa9190611629565b611339576040517f08c379a000000000000000000000000000000000000000000000000000000000815260040161133090611b8d565b60405180910390fd5b5b505050565b606061134e8484600085611357565b90509392505050565b60608247101561139c576040517f08c379a000000000000000000000000000000000000000000000000000000000815260040161139390611aad565b60405180910390fd5b6113a58561146b565b6113e4576040517f08c379a00000000000000000000000000000000000000000000000000000000081526004016113db90611b4d565b60405180910390fd5b6000808673ffffffffffffffffffffffffffffffffffffffff16858760405161140d9190611943565b60006040518083038185875af1925050503d806000811461144a576040519150601f19603f3d011682016040523d82523d6000602084013e61144f565b606091505b509150915061145f82828661147e565b92505050949350505050565b600080823b905060008111915050919050565b6060831561148e578290506114de565b6000835111156114a15782518084602001fd5b816040517f08c379a00000000000000000000000000000000000000000000000000000000081526004016114d59190611a0b565b60405180910390fd5b9392505050565b6000813590506114f48161220c565b92915050565b60008151905061150981612223565b92915050565b60008135905061151e8161223a565b92915050565b6000815190506115338161223a565b92915050565b60006020828403121561154b57600080fd5b6000611559848285016114e5565b91505092915050565b6000806040838503121561157557600080fd5b6000611583858286016114e5565b9250506020611594858286016114e5565b9150509250929050565b6000806000606084860312156115b357600080fd5b60006115c1868287016114e5565b93505060206115d2868287016114e5565b92505060406115e38682870161150f565b9150509250925092565b6000806040838503121561160057600080fd5b600061160e858286016114e5565b925050602061161f8582860161150f565b9150509250929050565b60006020828403121561163b57600080fd5b6000611649848285016114fa565b91505092915050565b60006020828403121561166457600080fd5b60006116728482850161150f565b91505092915050565b60006020828403121561168d57600080fd5b600061169b84828501611524565b91505092915050565b6116ad81611cdf565b82525050565b6116bc81611cf1565b82525050565b60006116cd82611c23565b6116d78185611c39565b93506116e7818560208601611d58565b80840191505092915050565b6116fc81611d34565b82525050565b600061170d82611c2e565b6117178185611c44565b9350611727818560208601611d58565b61173081611e1b565b840191505092915050565b6000611748602383611c44565b915061175382611e2c565b604082019050919050565b600061176b602283611c44565b915061177682611e7b565b604082019050919050565b600061178e602283611c44565b915061179982611eca565b604082019050919050565b60006117b1602683611c44565b91506117bc82611f19565b604082019050919050565b60006117d4602683611c44565b91506117df82611f68565b604082019050919050565b60006117f7602883611c44565b915061180282611fb7565b604082019050919050565b600061181a602183611c44565b915061182582612006565b604082019050919050565b600061183d602583611c44565b915061184882612055565b604082019050919050565b6000611860602483611c44565b915061186b826120a4565b604082019050919050565b6000611883601d83611c44565b915061188e826120f3565b602082019050919050565b60006118a6601283611c44565b91506118b18261211c565b602082019050919050565b60006118c9602a83611c44565b91506118d482612145565b604082019050919050565b60006118ec602583611c44565b91506118f782612194565b604082019050919050565b600061190f601f83611c44565b915061191a826121e3565b602082019050919050565b61192e81611d1d565b82525050565b61193d81611d27565b82525050565b600061194f82846116c2565b915081905092915050565b600060208201905061196f60008301846116a4565b92915050565b600060608201905061198a60008301866116a4565b61199760208301856116a4565b6119a46040830184611925565b949350505050565b60006040820190506119c160008301856116a4565b6119ce6020830184611925565b9392505050565b60006020820190506119ea60008301846116b3565b92915050565b6000602082019050611a0560008301846116f3565b92915050565b60006020820190508181036000830152611a258184611702565b905092915050565b60006020820190508181036000830152611a468161173b565b9050919050565b60006020820190508181036000830152611a668161175e565b9050919050565b60006020820190508181036000830152611a8681611781565b9050919050565b60006020820190508181036000830152611aa6816117a4565b9050919050565b60006020820190508181036000830152611ac6816117c7565b9050919050565b60006020820190508181036000830152611ae6816117ea565b9050919050565b60006020820190508181036000830152611b068161180d565b9050919050565b60006020820190508181036000830152611b2681611830565b9050919050565b60006020820190508181036000830152611b4681611853565b9050919050565b60006020820190508181036000830152611b6681611876565b9050919050565b60006020820190508181036000830152611b8681611899565b9050919050565b60006020820190508181036000830152611ba6816118bc565b9050919050565b60006020820190508181036000830152611bc6816118df565b9050919050565b60006020820190508181036000830152611be681611902565b9050919050565b6000602082019050611c026000830184611925565b92915050565b6000602082019050611c1d6000830184611934565b92915050565b600081519050919050565b600081519050919050565b600081905092915050565b600082825260208201905092915050565b6000611c6082611d1d565b9150611c6b83611d1d565b9250827fffffffffffffffffffffffffffffffffffffffffffffffffffffffffffffffff03821115611ca057611c9f611dbd565b5b828201905092915050565b6000611cb682611d1d565b9150611cc183611d1d565b925082821015611cd457611cd3611dbd565b5b828203905092915050565b6000611cea82611cfd565b9050919050565b60008115159050919050565b600073ffffffffffffffffffffffffffffffffffffffff82169050919050565b6000819050919050565b600060ff82169050919050565b6000611d3f82611d46565b9050919050565b6000611d5182611cfd565b9050919050565b60005b83811015611d76578082015181840152602081019050611d5b565b83811115611d85576000848401525b50505050565b60006002820490506001821680611da357607f821691505b60208210811415611db757611db6611dec565b5b50919050565b7f4e487b7100000000000000000000000000000000000000000000000000000000600052601160045260246000fd5b7f4e487b7100000000000000000000000000000000000000000000000000000000600052602260045260246000fd5b6000601f19601f8301169050919050565b7f45524332303a207472616e7366657220746f20746865207a65726f206164647260008201527f6573730000000000000000000000000000000000000000000000000000000000602082015250565b7f45524332303a206275726e20616d6f756e7420657863656564732062616c616e60008201527f6365000000000000000000000000000000000000000000000000000000000000602082015250565b7f45524332303a20617070726f766520746f20746865207a65726f20616464726560008201527f7373000000000000000000000000000000000000000000000000000000000000602082015250565b7f45524332303a207472616e7366657220616d6f756e742065786365656473206260008201527f616c616e63650000000000000000000000000000000000000000000000000000602082015250565b7f416464726573733a20696e73756666696369656e742062616c616e636520666f60008201527f722063616c6c0000000000000000000000000000000000000000000000000000602082015250565b7f45524332303a207472616e7366657220616d6f756e742065786365656473206160008201527f6c6c6f77616e6365000000000000000000000000000000000000000000000000602082015250565b7f45524332303a206275726e2066726f6d20746865207a65726f2061646472657360008201527f7300000000000000000000000000000000000000000000000000000000000000602082015250565b7f45524332303a207472616e736665722066726f6d20746865207a65726f20616460008201527f6472657373000000000000000000000000000000000000000000000000000000602082015250565b7f45524332303a20617070726f76652066726f6d20746865207a65726f2061646460008201527f7265737300000000000000000000000000000000000000000000000000000000602082015250565b7f416464726573733a2063616c6c20746f206e6f6e2d636f6e7472616374000000600082015250565b7f616d6f756e742063616e6e6f7420626520300000000000000000000000000000600082015250565b7f5361666545524332303a204552433230206f7065726174696f6e20646964206e60008201527f6f74207375636365656400000000000000000000000000000000000000000000602082015250565b7f45524332303a2064656372656173656420616c6c6f77616e63652062656c6f7760008201527f207a65726f000000000000000000000000000000000000000000000000000000602082015250565b7f45524332303a206d696e7420746f20746865207a65726f206164647265737300600082015250565b61221581611cdf565b811461222057600080fd5b50565b61222c81611cf1565b811461223757600080fd5b50565b61224381611d1d565b811461224e57600080fd5b5056fea2646970667358221220058a694b0574bc4bde6cf7a03ffc193ae074000aeede05f98b6a6ac9f60e82cb64736f6c63430008040033",
  "immutableReferences": {},
  "source": "// SPDX-License-Identifier: MIT\npragma solidity >=0.4.22 <0.9.0;\n\nimport \"@openzeppelin/contracts/utils/Address.sol\";\nimport \"@openzeppelin/contracts/utils/math/SafeMath.sol\";\nimport \"@openzeppelin/contracts/token/ERC20/IERC20.sol\";\nimport \"@openzeppelin/contracts/token/ERC20/ERC20.sol\";\nimport \"@openzeppelin/contracts/token/ERC20/utils/SafeERC20.sol\";\n\ncontract CreateFarmToken is ERC20 {\n    using Address for address;\n    using SafeMath for uint256;\n    using SafeERC20 for IERC20;\n\n    IERC20 public token;\n\n    constructor(address _token) ERC20(\"FarmToken\", \"FRM\") {\n      token = IERC20(_token);\n    }\n\n    function balance() public view returns (uint256) {\n        return token.balanceOf(address(this));\n    }\n\n    function deposit(uint256 _amount) public {\n        // Amount must be greater than zero\n        require(_amount > 0, \"amount cannot be 0\");\n\n        // Transfer MyToken to smart contract\n        token.safeTransferFrom(msg.sender, address(this), _amount);\n\n        // Mint FarmToken to msg sender\n        _mint(msg.sender, _amount);\n    }\n\n    function withdraw(uint256 _amount) public {\n        // Burn FarmTokens from msg sender\n        _burn(msg.sender, _amount);\n\n        // Transfer MyTokens from this smart contract to msg sender\n        token.safeTransfer(msg.sender, _amount);\n    }\n}\n",
  "sourcePath": "C:/Users/Piratchai-Dev/Desktop/Learn/Blockchain/etheruem/first-defi-dapp/contracts/2_CreateFarmToken.sol",
  "compiler": {
    "name": "solc",
    "version": "0.8.4+commit.c7e474f2.Emscripten.clang"
  },
  "schemaVersion": "3.4.1",
  "updatedAt": "2021-06-04T04:06:21.114Z",
  "networkType": "ethereum",
  "devdoc": {
    "kind": "dev",
    "methods": {
      "allowance(address,address)": {
        "details": "See {IERC20-allowance}."
      },
      "approve(address,uint256)": {
        "details": "See {IERC20-approve}. Requirements: - `spender` cannot be the zero address."
      },
      "balanceOf(address)": {
        "details": "See {IERC20-balanceOf}."
      },
      "decimals()": {
        "details": "Returns the number of decimals used to get its user representation. For example, if `decimals` equals `2`, a balance of `505` tokens should be displayed to a user as `5,05` (`505 / 10 ** 2`). Tokens usually opt for a value of 18, imitating the relationship between Ether and Wei. This is the value {ERC20} uses, unless this function is overridden; NOTE: This information is only used for _display_ purposes: it in no way affects any of the arithmetic of the contract, including {IERC20-balanceOf} and {IERC20-transfer}."
      },
      "decreaseAllowance(address,uint256)": {
        "details": "Atomically decreases the allowance granted to `spender` by the caller. This is an alternative to {approve} that can be used as a mitigation for problems described in {IERC20-approve}. Emits an {Approval} event indicating the updated allowance. Requirements: - `spender` cannot be the zero address. - `spender` must have allowance for the caller of at least `subtractedValue`."
      },
      "increaseAllowance(address,uint256)": {
        "details": "Atomically increases the allowance granted to `spender` by the caller. This is an alternative to {approve} that can be used as a mitigation for problems described in {IERC20-approve}. Emits an {Approval} event indicating the updated allowance. Requirements: - `spender` cannot be the zero address."
      },
      "name()": {
        "details": "Returns the name of the token."
      },
      "symbol()": {
        "details": "Returns the symbol of the token, usually a shorter version of the name."
      },
      "totalSupply()": {
        "details": "See {IERC20-totalSupply}."
      },
      "transfer(address,uint256)": {
        "details": "See {IERC20-transfer}. Requirements: - `recipient` cannot be the zero address. - the caller must have a balance of at least `amount`."
      },
      "transferFrom(address,address,uint256)": {
        "details": "See {IERC20-transferFrom}. Emits an {Approval} event indicating the updated allowance. This is not required by the EIP. See the note at the beginning of {ERC20}. Requirements: - `sender` and `recipient` cannot be the zero address. - `sender` must have a balance of at least `amount`. - the caller must have allowance for ``sender``'s tokens of at least `amount`."
      }
    },
    "version": 1
  },
  "userdoc": {
    "kind": "user",
    "methods": {},
    "version": 1
  }
}